{
  "abi": [
    {
      "inputs": [
        {
          "internalType": "contract ERC20",
          "name": "underlying",
          "type": "address"
        }
      ],
      "stateMutability": "nonpayable",
      "type": "constructor"
    },
    {
      "anonymous": false,
      "inputs": [
        {
          "indexed": true,
          "internalType": "address",
          "name": "owner",
          "type": "address"
        },
        {
          "indexed": true,
          "internalType": "address",
          "name": "spender",
          "type": "address"
        },
        {
          "indexed": false,
          "internalType": "uint256",
          "name": "amount",
          "type": "uint256"
        }
      ],
      "name": "Approval",
      "type": "event"
    },
    {
      "anonymous": false,
      "inputs": [
        {
          "indexed": true,
          "internalType": "address",
          "name": "caller",
          "type": "address"
        },
        {
          "indexed": true,
          "internalType": "address",
          "name": "owner",
          "type": "address"
        },
        {
          "indexed": false,
          "internalType": "uint256",
          "name": "assets",
          "type": "uint256"
        },
        {
          "indexed": false,
          "internalType": "uint256",
          "name": "shares",
          "type": "uint256"
        }
      ],
      "name": "Deposit",
      "type": "event"
    },
    {
      "anonymous": false,
      "inputs": [
        {
          "indexed": true,
          "internalType": "address",
          "name": "from",
          "type": "address"
        },
        {
          "indexed": true,
          "internalType": "address",
          "name": "to",
          "type": "address"
        },
        {
          "indexed": false,
          "internalType": "uint256",
          "name": "amount",
          "type": "uint256"
        }
      ],
      "name": "Transfer",
      "type": "event"
    },
    {
      "anonymous": false,
      "inputs": [
        {
          "indexed": true,
          "internalType": "address",
          "name": "caller",
          "type": "address"
        },
        {
          "indexed": true,
          "internalType": "address",
          "name": "receiver",
          "type": "address"
        },
        {
          "indexed": true,
          "internalType": "address",
          "name": "owner",
          "type": "address"
        },
        {
          "indexed": false,
          "internalType": "uint256",
          "name": "assets",
          "type": "uint256"
        },
        {
          "indexed": false,
          "internalType": "uint256",
          "name": "shares",
          "type": "uint256"
        }
      ],
      "name": "Withdraw",
      "type": "event"
    },
    {
      "inputs": [],
      "name": "DOMAIN_SEPARATOR",
      "outputs": [
        {
          "internalType": "bytes32",
          "name": "",
          "type": "bytes32"
        }
      ],
      "stateMutability": "view",
      "type": "function"
    },
    {
      "inputs": [
        {
          "internalType": "address",
          "name": "",
          "type": "address"
        },
        {
          "internalType": "address",
          "name": "",
          "type": "address"
        }
      ],
      "name": "allowance",
      "outputs": [
        {
          "internalType": "uint256",
          "name": "",
          "type": "uint256"
        }
      ],
      "stateMutability": "view",
      "type": "function"
    },
    {
      "inputs": [
        {
          "internalType": "address",
          "name": "spender",
          "type": "address"
        },
        {
          "internalType": "uint256",
          "name": "amount",
          "type": "uint256"
        }
      ],
      "name": "approve",
      "outputs": [
        {
          "internalType": "bool",
          "name": "",
          "type": "bool"
        }
      ],
      "stateMutability": "nonpayable",
      "type": "function"
    },
    {
      "inputs": [],
      "name": "asset",
      "outputs": [
        {
          "internalType": "contract ERC20",
          "name": "",
          "type": "address"
        }
      ],
      "stateMutability": "view",
      "type": "function"
    },
    {
      "inputs": [
        {
          "internalType": "address",
          "name": "",
          "type": "address"
        }
      ],
      "name": "balanceOf",
      "outputs": [
        {
          "internalType": "uint256",
          "name": "",
          "type": "uint256"
        }
      ],
      "stateMutability": "view",
      "type": "function"
    },
    {
      "inputs": [
        {
          "internalType": "uint256",
          "name": "shares",
          "type": "uint256"
        }
      ],
      "name": "convertToAssets",
      "outputs": [
        {
          "internalType": "uint256",
          "name": "",
          "type": "uint256"
        }
      ],
      "stateMutability": "view",
      "type": "function"
    },
    {
      "inputs": [
        {
          "internalType": "uint256",
          "name": "assets",
          "type": "uint256"
        }
      ],
      "name": "convertToShares",
      "outputs": [
        {
          "internalType": "uint256",
          "name": "",
          "type": "uint256"
        }
      ],
      "stateMutability": "view",
      "type": "function"
    },
    {
      "inputs": [],
      "name": "decimals",
      "outputs": [
        {
          "internalType": "uint8",
          "name": "",
          "type": "uint8"
        }
      ],
      "stateMutability": "view",
      "type": "function"
    },
    {
      "inputs": [
        {
          "internalType": "uint256",
          "name": "assets",
          "type": "uint256"
        },
        {
          "internalType": "address",
          "name": "receiver",
          "type": "address"
        }
      ],
      "name": "deposit",
      "outputs": [
        {
          "internalType": "uint256",
          "name": "shares",
          "type": "uint256"
        }
      ],
      "stateMutability": "nonpayable",
      "type": "function"
    },
    {
      "inputs": [
        {
          "internalType": "address",
          "name": "",
          "type": "address"
        }
      ],
      "name": "maxDeposit",
      "outputs": [
        {
          "internalType": "uint256",
          "name": "",
          "type": "uint256"
        }
      ],
      "stateMutability": "view",
      "type": "function"
    },
    {
      "inputs": [
        {
          "internalType": "address",
          "name": "",
          "type": "address"
        }
      ],
      "name": "maxMint",
      "outputs": [
        {
          "internalType": "uint256",
          "name": "",
          "type": "uint256"
        }
      ],
      "stateMutability": "view",
      "type": "function"
    },
    {
      "inputs": [
        {
          "internalType": "address",
          "name": "owner",
          "type": "address"
        }
      ],
      "name": "maxRedeem",
      "outputs": [
        {
          "internalType": "uint256",
          "name": "",
          "type": "uint256"
        }
      ],
      "stateMutability": "view",
      "type": "function"
    },
    {
      "inputs": [
        {
          "internalType": "address",
          "name": "owner",
          "type": "address"
        }
      ],
      "name": "maxWithdraw",
      "outputs": [
        {
          "internalType": "uint256",
          "name": "",
          "type": "uint256"
        }
      ],
      "stateMutability": "view",
      "type": "function"
    },
    {
      "inputs": [
        {
          "internalType": "uint256",
          "name": "shares",
          "type": "uint256"
        },
        {
          "internalType": "address",
          "name": "receiver",
          "type": "address"
        }
      ],
      "name": "mint",
      "outputs": [
        {
          "internalType": "uint256",
          "name": "assets",
          "type": "uint256"
        }
      ],
      "stateMutability": "nonpayable",
      "type": "function"
    },
    {
      "inputs": [],
      "name": "name",
      "outputs": [
        {
          "internalType": "string",
          "name": "",
          "type": "string"
        }
      ],
      "stateMutability": "view",
      "type": "function"
    },
    {
      "inputs": [
        {
          "internalType": "address",
          "name": "",
          "type": "address"
        }
      ],
      "name": "nonces",
      "outputs": [
        {
          "internalType": "uint256",
          "name": "",
          "type": "uint256"
        }
      ],
      "stateMutability": "view",
      "type": "function"
    },
    {
      "inputs": [
        {
          "internalType": "address",
          "name": "owner",
          "type": "address"
        },
        {
          "internalType": "address",
          "name": "spender",
          "type": "address"
        },
        {
          "internalType": "uint256",
          "name": "value",
          "type": "uint256"
        },
        {
          "internalType": "uint256",
          "name": "deadline",
          "type": "uint256"
        },
        {
          "internalType": "uint8",
          "name": "v",
          "type": "uint8"
        },
        {
          "internalType": "bytes32",
          "name": "r",
          "type": "bytes32"
        },
        {
          "internalType": "bytes32",
          "name": "s",
          "type": "bytes32"
        }
      ],
      "name": "permit",
      "outputs": [],
      "stateMutability": "nonpayable",
      "type": "function"
    },
    {
      "inputs": [
        {
          "internalType": "uint256",
          "name": "assets",
          "type": "uint256"
        }
      ],
      "name": "previewDeposit",
      "outputs": [
        {
          "internalType": "uint256",
          "name": "",
          "type": "uint256"
        }
      ],
      "stateMutability": "view",
      "type": "function"
    },
    {
      "inputs": [
        {
          "internalType": "uint256",
          "name": "shares",
          "type": "uint256"
        }
      ],
      "name": "previewMint",
      "outputs": [
        {
          "internalType": "uint256",
          "name": "",
          "type": "uint256"
        }
      ],
      "stateMutability": "view",
      "type": "function"
    },
    {
      "inputs": [
        {
          "internalType": "uint256",
          "name": "shares",
          "type": "uint256"
        }
      ],
      "name": "previewRedeem",
      "outputs": [
        {
          "internalType": "uint256",
          "name": "",
          "type": "uint256"
        }
      ],
      "stateMutability": "view",
      "type": "function"
    },
    {
      "inputs": [
        {
          "internalType": "uint256",
          "name": "assets",
          "type": "uint256"
        }
      ],
      "name": "previewWithdraw",
      "outputs": [
        {
          "internalType": "uint256",
          "name": "",
          "type": "uint256"
        }
      ],
      "stateMutability": "view",
      "type": "function"
    },
    {
      "inputs": [
        {
          "internalType": "uint256",
          "name": "shares",
          "type": "uint256"
        },
        {
          "internalType": "address",
          "name": "receiver",
          "type": "address"
        },
        {
          "internalType": "address",
          "name": "owner",
          "type": "address"
        }
      ],
      "name": "redeem",
      "outputs": [
        {
          "internalType": "uint256",
          "name": "assets",
          "type": "uint256"
        }
      ],
      "stateMutability": "nonpayable",
      "type": "function"
    },
    {
      "inputs": [],
      "name": "symbol",
      "outputs": [
        {
          "internalType": "string",
          "name": "",
          "type": "string"
        }
      ],
      "stateMutability": "view",
      "type": "function"
    },
    {
      "inputs": [],
      "name": "totalAssets",
      "outputs": [
        {
          "internalType": "uint256",
          "name": "",
          "type": "uint256"
        }
      ],
      "stateMutability": "view",
      "type": "function"
    },
    {
      "inputs": [],
      "name": "totalSupply",
      "outputs": [
        {
          "internalType": "uint256",
          "name": "",
          "type": "uint256"
        }
      ],
      "stateMutability": "view",
      "type": "function"
    },
    {
      "inputs": [
        {
          "internalType": "address",
          "name": "to",
          "type": "address"
        },
        {
          "internalType": "uint256",
          "name": "amount",
          "type": "uint256"
        }
      ],
      "name": "transfer",
      "outputs": [
        {
          "internalType": "bool",
          "name": "",
          "type": "bool"
        }
      ],
      "stateMutability": "nonpayable",
      "type": "function"
    },
    {
      "inputs": [
        {
          "internalType": "address",
          "name": "from",
          "type": "address"
        },
        {
          "internalType": "address",
          "name": "to",
          "type": "address"
        },
        {
          "internalType": "uint256",
          "name": "amount",
          "type": "uint256"
        }
      ],
      "name": "transferFrom",
      "outputs": [
        {
          "internalType": "bool",
          "name": "",
          "type": "bool"
        }
      ],
      "stateMutability": "nonpayable",
      "type": "function"
    },
    {
      "inputs": [
        {
          "internalType": "uint256",
          "name": "assets",
          "type": "uint256"
        },
        {
          "internalType": "address",
          "name": "receiver",
          "type": "address"
        },
        {
          "internalType": "address",
          "name": "owner",
          "type": "address"
        }
      ],
      "name": "withdraw",
      "outputs": [
        {
          "internalType": "uint256",
          "name": "shares",
          "type": "uint256"
        }
      ],
      "stateMutability": "nonpayable",
      "type": "function"
    }
  ],
  "bytecode": {
    "object": "0x6101006040523480156200001257600080fd5b506040516200189e3803806200189e83398101604081905262000035916200027b565b8060405180604001604052806009815260200168135bd8dad5985d5b1d60ba1b8152506040518060400160405280600281526020016126ab60f11b8152508181846001600160a01b031663313ce5676040518163ffffffff1660e01b8152600401602060405180830381865afa158015620000b4573d6000803e3d6000fd5b505050506040513d601f19601f82011682018060405250810190620000da9190620002ad565b8251620000ef906000906020860190620001d5565b50815162000105906001906020850190620001d5565b5060ff81166080524660a0526200011b62000139565b60c0525050506001600160a01b0390921660e05250620003b3915050565b60007f8b73c3c69bb8fe3d512ecc4cf759cc79239f7b179b0ffacaa9a75d522b39400f60006040516200016d91906200030f565b6040805191829003822060208301939093528101919091527fc89efdaa54c0f20c7adf612882df0950f5a951637e0307cdcb4c672f298b8bc660608201524660808201523060a082015260c00160405160208183030381529060405280519060200120905090565b828054620001e390620002d2565b90600052602060002090601f01602090048101928262000207576000855562000252565b82601f106200022257805160ff191683800117855562000252565b8280016001018555821562000252579182015b828111156200025257825182559160200191906001019062000235565b506200026092915062000264565b5090565b5b8082111562000260576000815560010162000265565b6000602082840312156200028e57600080fd5b81516001600160a01b0381168114620002a657600080fd5b9392505050565b600060208284031215620002c057600080fd5b815160ff81168114620002a657600080fd5b600181811c90821680620002e757607f821691505b602082108114156200030957634e487b7160e01b600052602260045260246000fd5b50919050565b600080835481600182811c9150808316806200032c57607f831692505b60208084108214156200034d57634e487b7160e01b86526022600452602486fd5b8180156200036457600181146200037657620003a5565b60ff19861689528489019650620003a5565b60008a81526020902060005b868110156200039d5781548b82015290850190830162000382565b505084890196505b509498975050505050505050565b60805160a05160c05160e05161148e62000410600039600081816102a40152818161047a015281816107d50152818161086d01528181610a510152610b900152600061074e0152600061071e01526000610263015261148e6000f3fe608060405234801561001057600080fd5b50600436106101c45760003560e01c80637ecebe00116100f9578063c63d75b611610097578063d505accf11610071578063d505accf146103e6578063d905777e146103fb578063dd62ed3e14610424578063ef8b30f71461044f57600080fd5b8063c63d75b6146102de578063c6e6f592146103c0578063ce96cb77146103d357600080fd5b8063a9059cbb116100d3578063a9059cbb14610374578063b3d7f6b914610387578063b460af941461039a578063ba087652146103ad57600080fd5b80637ecebe001461033957806394bf804d1461035957806395d89b411461036c57600080fd5b8063313ce56711610166578063402d267d11610140578063402d267d146102de5780634cdad506146102f35780636e553f651461030657806370a082311461031957600080fd5b8063313ce5671461025e5780633644e5151461029757806338d52e0f1461029f57600080fd5b8063095ea7b3116101a2578063095ea7b31461020c5780630a28a4771461022f57806318160ddd1461024257806323b872dd1461024b57600080fd5b806301e1d114146101c957806306fdde03146101e457806307a2d13a146101f9575b600080fd5b6101d1610462565b6040519081526020015b60405180910390f35b6101ec6104f2565b6040516101db91906110f3565b6101d1610207366004611148565b610580565b61021f61021a36600461117d565b6105ad565b60405190151581526020016101db565b6101d161023d366004611148565b61061a565b6101d160025481565b61021f6102593660046111a7565b61063a565b6102857f000000000000000000000000000000000000000000000000000000000000000081565b60405160ff90911681526020016101db565b6101d161071a565b6102c67f000000000000000000000000000000000000000000000000000000000000000081565b6040516001600160a01b0390911681526020016101db565b6101d16102ec3660046111e3565b5060001990565b6101d1610301366004611148565b610770565b6101d16103143660046111fe565b61077b565b6101d16103273660046111e3565b60036020526000908152604090205481565b6101d16103473660046111e3565b60056020526000908152604090205481565b6101d16103673660046111fe565b610853565b6101ec6108e2565b61021f61038236600461117d565b6108ef565b6101d1610395366004611148565b610955565b6101d16103a836600461122a565b610974565b6101d16103bb36600461122a565b610a78565b6101d16103ce366004611148565b610bb7565b6101d16103e13660046111e3565b610bd7565b6103f96103f4366004611266565b610bf9565b005b6101d16104093660046111e3565b6001600160a01b031660009081526003602052604090205490565b6101d16104323660046112d9565b600460209081526000928352604080842090915290825290205481565b6101d161045d366004611148565b610e3d565b6040516370a0823160e01b81523060048201526000907f00000000000000000000000000000000000000000000000000000000000000006001600160a01b0316906370a0823190602401602060405180830381865afa1580156104c9573d6000803e3d6000fd5b505050506040513d601f19601f820116820180604052508101906104ed9190611303565b905090565b600080546104ff9061131c565b80601f016020809104026020016040519081016040528092919081815260200182805461052b9061131c565b80156105785780601f1061054d57610100808354040283529160200191610578565b820191906000526020600020905b81548152906001019060200180831161055b57829003601f168201915b505050505081565b60025460009080156105a45761059f610597610462565b849083610e48565b6105a6565b825b9392505050565b3360008181526004602090815260408083206001600160a01b038716808552925280832085905551919290917f8c5be1e5ebec7d5bd14f71427d1e84f3dd0314c0f7b2291e5b200ac8c7c3b925906106089086815260200190565b60405180910390a35060015b92915050565b60025460009080156105a45761059f81610632610462565b859190610e67565b6001600160a01b0383166000908152600460209081526040808320338452909152812054600019811461069657610671838261136d565b6001600160a01b03861660009081526004602090815260408083203384529091529020555b6001600160a01b038516600090815260036020526040812080548592906106be90849061136d565b90915550506001600160a01b0380851660008181526003602052604090819020805487019055519091871690600080516020611439833981519152906107079087815260200190565b60405180910390a3506001949350505050565b60007f0000000000000000000000000000000000000000000000000000000000000000461461074b576104ed610e95565b507f000000000000000000000000000000000000000000000000000000000000000090565b600061061482610580565b600061078683610e3d565b9050806107c85760405162461bcd60e51b815260206004820152600b60248201526a5a45524f5f53484152455360a81b60448201526064015b60405180910390fd5b6107fd6001600160a01b037f000000000000000000000000000000000000000000000000000000000000000016333086610f2f565b6108078282610fb9565b60408051848152602081018390526001600160a01b0384169133917fdcbc1c05240f31ff3ad067ef1ee35ce4997762752e3a095284754544f4c709d791015b60405180910390a3610614565b600061085e83610955565b90506108956001600160a01b037f000000000000000000000000000000000000000000000000000000000000000016333084610f2f565b61089f8284610fb9565b60408051828152602081018590526001600160a01b0384169133917fdcbc1c05240f31ff3ad067ef1ee35ce4997762752e3a095284754544f4c709d79101610846565b600180546104ff9061131c565b3360009081526003602052604081208054839190839061091090849061136d565b90915550506001600160a01b03831660008181526003602052604090819020805485019055513390600080516020611439833981519152906106089086815260200190565b60025460009080156105a45761059f61096c610462565b849083610e67565b600061097f8461061a565b9050336001600160a01b038316146109ef576001600160a01b038216600090815260046020908152604080832033845290915290205460001981146109ed576109c8828261136d565b6001600160a01b03841660009081526004602090815260408083203384529091529020555b505b6109f98282611013565b60408051858152602081018390526001600160a01b03808516929086169133917ffbde797d201c681b91056529119e0b02407c7bb96a4a2c75c01fc9667232c8db910160405180910390a46105a66001600160a01b037f0000000000000000000000000000000000000000000000000000000000000000168486611075565b6000336001600160a01b03831614610ae8576001600160a01b03821660009081526004602090815260408083203384529091529020546000198114610ae657610ac1858261136d565b6001600160a01b03841660009081526004602090815260408083203384529091529020555b505b610af184610770565b905080610b2e5760405162461bcd60e51b815260206004820152600b60248201526a5a45524f5f41535345545360a81b60448201526064016107bf565b610b388285611013565b60408051828152602081018690526001600160a01b03808516929086169133917ffbde797d201c681b91056529119e0b02407c7bb96a4a2c75c01fc9667232c8db910160405180910390a46105a66001600160a01b037f0000000000000000000000000000000000000000000000000000000000000000168483611075565b60025460009080156105a45761059f81610bcf610462565b859190610e48565b6001600160a01b03811660009081526003602052604081205461061490610580565b42841015610c495760405162461bcd60e51b815260206004820152601760248201527f5045524d49545f444541444c494e455f4558504952454400000000000000000060448201526064016107bf565b60006001610c5561071a565b6001600160a01b038a811660008181526005602090815260409182902080546001810190915582517f6e71edae12b1b97f4d1f60370fef10105fa2faae0126114a169c64845d6126c98184015280840194909452938d166060840152608083018c905260a083019390935260c08083018b90528151808403909101815260e08301909152805192019190912061190160f01b6101008301526101028201929092526101228101919091526101420160408051601f198184030181528282528051602091820120600084529083018083525260ff871690820152606081018590526080810184905260a0016020604051602081039080840390855afa158015610d61573d6000803e3d6000fd5b5050604051601f1901519150506001600160a01b03811615801590610d975750876001600160a01b0316816001600160a01b0316145b610dd45760405162461bcd60e51b815260206004820152600e60248201526d24a72b20a624a22fa9a4a3a722a960911b60448201526064016107bf565b6001600160a01b0390811660009081526004602090815260408083208a8516808552908352928190208990555188815291928a16917f8c5be1e5ebec7d5bd14f71427d1e84f3dd0314c0f7b2291e5b200ac8c7c3b925910160405180910390a350505050505050565b600061061482610bb7565b828202811515841585830485141716610e6057600080fd5b0492915050565b828202811515841585830485141716610e7f57600080fd5b6001826001830304018115150290509392505050565b60007f8b73c3c69bb8fe3d512ecc4cf759cc79239f7b179b0ffacaa9a75d522b39400f6000604051610ec79190611384565b6040805191829003822060208301939093528101919091527fc89efdaa54c0f20c7adf612882df0950f5a951637e0307cdcb4c672f298b8bc660608201524660808201523060a082015260c00160405160208183030381529060405280519060200120905090565b60006040516323b872dd60e01b81528460048201528360248201528260448201526020600060648360008a5af13d15601f3d1160016000511416171691505080610fb25760405162461bcd60e51b81526020600482015260146024820152731514905394d1915497d19493d357d1905253115160621b60448201526064016107bf565b5050505050565b8060026000828254610fcb9190611420565b90915550506001600160a01b03821660008181526003602090815260408083208054860190555184815260008051602061143983398151915291015b60405180910390a35050565b6001600160a01b0382166000908152600360205260408120805483929061103b90849061136d565b90915550506002805482900390556040518181526000906001600160a01b0384169060008051602061143983398151915290602001611007565b600060405163a9059cbb60e01b8152836004820152826024820152602060006044836000895af13d15601f3d11600160005114161716915050806110ed5760405162461bcd60e51b815260206004820152600f60248201526e1514905394d1915497d19052531151608a1b60448201526064016107bf565b50505050565b600060208083528351808285015260005b8181101561112057858101830151858201604001528201611104565b81811115611132576000604083870101525b50601f01601f1916929092016040019392505050565b60006020828403121561115a57600080fd5b5035919050565b80356001600160a01b038116811461117857600080fd5b919050565b6000806040838503121561119057600080fd5b61119983611161565b946020939093013593505050565b6000806000606084860312156111bc57600080fd5b6111c584611161565b92506111d360208501611161565b9150604084013590509250925092565b6000602082840312156111f557600080fd5b6105a682611161565b6000806040838503121561121157600080fd5b8235915061122160208401611161565b90509250929050565b60008060006060848603121561123f57600080fd5b8335925061124f60208501611161565b915061125d60408501611161565b90509250925092565b600080600080600080600060e0888a03121561128157600080fd5b61128a88611161565b965061129860208901611161565b95506040880135945060608801359350608088013560ff811681146112bc57600080fd5b9699959850939692959460a0840135945060c09093013592915050565b600080604083850312156112ec57600080fd5b6112f583611161565b915061122160208401611161565b60006020828403121561131557600080fd5b5051919050565b600181811c9082168061133057607f821691505b6020821081141561135157634e487b7160e01b600052602260045260246000fd5b50919050565b634e487b7160e01b600052601160045260246000fd5b60008282101561137f5761137f611357565b500390565b600080835481600182811c9150808316806113a057607f831692505b60208084108214156113c057634e487b7160e01b86526022600452602486fd5b8180156113d457600181146113e557611412565b60ff19861689528489019650611412565b60008a81526020902060005b8681101561140a5781548b8201529085019083016113f1565b505084890196505b509498975050505050505050565b6000821982111561143357611433611357565b50019056feddf252ad1be2c89b69c2b068fc378daa952ba7f163c4a11628f55a4df523b3efa26469706673582212202ffcf02a93b9d9b3305392b28b4d4ac836bef5ef1677d3950131062dfa0681df64736f6c634300080c0033",
    "linkReferences": {}
  }
}