{
  "abi": [
    {
      "inputs": [
        {
          "internalType": "contract ERC20",
          "name": "_underlying",
          "type": "address"
        },
        {
          "internalType": "string",
          "name": "_name",
          "type": "string"
        },
        {
          "internalType": "string",
          "name": "_symbol",
          "type": "string"
        },
        {
          "internalType": "uint32",
          "name": "_rewardsCycleLength",
          "type": "uint32"
        }
      ],
      "stateMutability": "nonpayable",
      "type": "constructor"
    },
    {
      "inputs": [],
      "name": "SyncError",
      "type": "error"
    },
    {
      "anonymous": false,
      "inputs": [
        {
          "indexed": true,
          "internalType": "address",
          "name": "owner",
          "type": "address"
        },
        {
          "indexed": true,
          "internalType": "address",
          "name": "spender",
          "type": "address"
        },
        {
          "indexed": false,
          "internalType": "uint256",
          "name": "amount",
          "type": "uint256"
        }
      ],
      "name": "Approval",
      "type": "event"
    },
    {
      "anonymous": false,
      "inputs": [
        {
          "indexed": true,
          "internalType": "address",
          "name": "caller",
          "type": "address"
        },
        {
          "indexed": true,
          "internalType": "address",
          "name": "owner",
          "type": "address"
        },
        {
          "indexed": false,
          "internalType": "uint256",
          "name": "assets",
          "type": "uint256"
        },
        {
          "indexed": false,
          "internalType": "uint256",
          "name": "shares",
          "type": "uint256"
        }
      ],
      "name": "Deposit",
      "type": "event"
    },
    {
      "anonymous": false,
      "inputs": [
        {
          "indexed": true,
          "internalType": "uint32",
          "name": "cycleEnd",
          "type": "uint32"
        },
        {
          "indexed": false,
          "internalType": "uint256",
          "name": "rewardAmount",
          "type": "uint256"
        }
      ],
      "name": "NewRewardsCycle",
      "type": "event"
    },
    {
      "anonymous": false,
      "inputs": [
        {
          "indexed": true,
          "internalType": "address",
          "name": "from",
          "type": "address"
        },
        {
          "indexed": true,
          "internalType": "address",
          "name": "to",
          "type": "address"
        },
        {
          "indexed": false,
          "internalType": "uint256",
          "name": "amount",
          "type": "uint256"
        }
      ],
      "name": "Transfer",
      "type": "event"
    },
    {
      "anonymous": false,
      "inputs": [
        {
          "indexed": true,
          "internalType": "address",
          "name": "caller",
          "type": "address"
        },
        {
          "indexed": true,
          "internalType": "address",
          "name": "receiver",
          "type": "address"
        },
        {
          "indexed": true,
          "internalType": "address",
          "name": "owner",
          "type": "address"
        },
        {
          "indexed": false,
          "internalType": "uint256",
          "name": "assets",
          "type": "uint256"
        },
        {
          "indexed": false,
          "internalType": "uint256",
          "name": "shares",
          "type": "uint256"
        }
      ],
      "name": "Withdraw",
      "type": "event"
    },
    {
      "inputs": [],
      "name": "DOMAIN_SEPARATOR",
      "outputs": [
        {
          "internalType": "bytes32",
          "name": "",
          "type": "bytes32"
        }
      ],
      "stateMutability": "view",
      "type": "function"
    },
    {
      "inputs": [
        {
          "internalType": "address",
          "name": "",
          "type": "address"
        },
        {
          "internalType": "address",
          "name": "",
          "type": "address"
        }
      ],
      "name": "allowance",
      "outputs": [
        {
          "internalType": "uint256",
          "name": "",
          "type": "uint256"
        }
      ],
      "stateMutability": "view",
      "type": "function"
    },
    {
      "inputs": [
        {
          "internalType": "address",
          "name": "spender",
          "type": "address"
        },
        {
          "internalType": "uint256",
          "name": "amount",
          "type": "uint256"
        }
      ],
      "name": "approve",
      "outputs": [
        {
          "internalType": "bool",
          "name": "",
          "type": "bool"
        }
      ],
      "stateMutability": "nonpayable",
      "type": "function"
    },
    {
      "inputs": [],
      "name": "asset",
      "outputs": [
        {
          "internalType": "contract ERC20",
          "name": "",
          "type": "address"
        }
      ],
      "stateMutability": "view",
      "type": "function"
    },
    {
      "inputs": [
        {
          "internalType": "address",
          "name": "",
          "type": "address"
        }
      ],
      "name": "balanceOf",
      "outputs": [
        {
          "internalType": "uint256",
          "name": "",
          "type": "uint256"
        }
      ],
      "stateMutability": "view",
      "type": "function"
    },
    {
      "inputs": [
        {
          "internalType": "uint256",
          "name": "shares",
          "type": "uint256"
        }
      ],
      "name": "convertToAssets",
      "outputs": [
        {
          "internalType": "uint256",
          "name": "",
          "type": "uint256"
        }
      ],
      "stateMutability": "view",
      "type": "function"
    },
    {
      "inputs": [
        {
          "internalType": "uint256",
          "name": "assets",
          "type": "uint256"
        }
      ],
      "name": "convertToShares",
      "outputs": [
        {
          "internalType": "uint256",
          "name": "",
          "type": "uint256"
        }
      ],
      "stateMutability": "view",
      "type": "function"
    },
    {
      "inputs": [],
      "name": "decimals",
      "outputs": [
        {
          "internalType": "uint8",
          "name": "",
          "type": "uint8"
        }
      ],
      "stateMutability": "view",
      "type": "function"
    },
    {
      "inputs": [
        {
          "internalType": "uint256",
          "name": "assets",
          "type": "uint256"
        },
        {
          "internalType": "address",
          "name": "receiver",
          "type": "address"
        }
      ],
      "name": "deposit",
      "outputs": [
        {
          "internalType": "uint256",
          "name": "shares",
          "type": "uint256"
        }
      ],
      "stateMutability": "nonpayable",
      "type": "function"
    },
    {
      "inputs": [],
      "name": "lastRewardAmount",
      "outputs": [
        {
          "internalType": "uint192",
          "name": "",
          "type": "uint192"
        }
      ],
      "stateMutability": "view",
      "type": "function"
    },
    {
      "inputs": [],
      "name": "lastSync",
      "outputs": [
        {
          "internalType": "uint32",
          "name": "",
          "type": "uint32"
        }
      ],
      "stateMutability": "view",
      "type": "function"
    },
    {
      "inputs": [
        {
          "internalType": "address",
          "name": "",
          "type": "address"
        }
      ],
      "name": "maxDeposit",
      "outputs": [
        {
          "internalType": "uint256",
          "name": "",
          "type": "uint256"
        }
      ],
      "stateMutability": "view",
      "type": "function"
    },
    {
      "inputs": [
        {
          "internalType": "address",
          "name": "",
          "type": "address"
        }
      ],
      "name": "maxMint",
      "outputs": [
        {
          "internalType": "uint256",
          "name": "",
          "type": "uint256"
        }
      ],
      "stateMutability": "view",
      "type": "function"
    },
    {
      "inputs": [
        {
          "internalType": "address",
          "name": "owner",
          "type": "address"
        }
      ],
      "name": "maxRedeem",
      "outputs": [
        {
          "internalType": "uint256",
          "name": "",
          "type": "uint256"
        }
      ],
      "stateMutability": "view",
      "type": "function"
    },
    {
      "inputs": [
        {
          "internalType": "address",
          "name": "owner",
          "type": "address"
        }
      ],
      "name": "maxWithdraw",
      "outputs": [
        {
          "internalType": "uint256",
          "name": "",
          "type": "uint256"
        }
      ],
      "stateMutability": "view",
      "type": "function"
    },
    {
      "inputs": [
        {
          "internalType": "uint256",
          "name": "shares",
          "type": "uint256"
        },
        {
          "internalType": "address",
          "name": "receiver",
          "type": "address"
        }
      ],
      "name": "mint",
      "outputs": [
        {
          "internalType": "uint256",
          "name": "assets",
          "type": "uint256"
        }
      ],
      "stateMutability": "nonpayable",
      "type": "function"
    },
    {
      "inputs": [],
      "name": "name",
      "outputs": [
        {
          "internalType": "string",
          "name": "",
          "type": "string"
        }
      ],
      "stateMutability": "view",
      "type": "function"
    },
    {
      "inputs": [
        {
          "internalType": "address",
          "name": "",
          "type": "address"
        }
      ],
      "name": "nonces",
      "outputs": [
        {
          "internalType": "uint256",
          "name": "",
          "type": "uint256"
        }
      ],
      "stateMutability": "view",
      "type": "function"
    },
    {
      "inputs": [
        {
          "internalType": "address",
          "name": "owner",
          "type": "address"
        },
        {
          "internalType": "address",
          "name": "spender",
          "type": "address"
        },
        {
          "internalType": "uint256",
          "name": "value",
          "type": "uint256"
        },
        {
          "internalType": "uint256",
          "name": "deadline",
          "type": "uint256"
        },
        {
          "internalType": "uint8",
          "name": "v",
          "type": "uint8"
        },
        {
          "internalType": "bytes32",
          "name": "r",
          "type": "bytes32"
        },
        {
          "internalType": "bytes32",
          "name": "s",
          "type": "bytes32"
        }
      ],
      "name": "permit",
      "outputs": [],
      "stateMutability": "nonpayable",
      "type": "function"
    },
    {
      "inputs": [
        {
          "internalType": "uint256",
          "name": "assets",
          "type": "uint256"
        }
      ],
      "name": "previewDeposit",
      "outputs": [
        {
          "internalType": "uint256",
          "name": "",
          "type": "uint256"
        }
      ],
      "stateMutability": "view",
      "type": "function"
    },
    {
      "inputs": [
        {
          "internalType": "uint256",
          "name": "shares",
          "type": "uint256"
        }
      ],
      "name": "previewMint",
      "outputs": [
        {
          "internalType": "uint256",
          "name": "",
          "type": "uint256"
        }
      ],
      "stateMutability": "view",
      "type": "function"
    },
    {
      "inputs": [
        {
          "internalType": "uint256",
          "name": "shares",
          "type": "uint256"
        }
      ],
      "name": "previewRedeem",
      "outputs": [
        {
          "internalType": "uint256",
          "name": "",
          "type": "uint256"
        }
      ],
      "stateMutability": "view",
      "type": "function"
    },
    {
      "inputs": [
        {
          "internalType": "uint256",
          "name": "assets",
          "type": "uint256"
        }
      ],
      "name": "previewWithdraw",
      "outputs": [
        {
          "internalType": "uint256",
          "name": "",
          "type": "uint256"
        }
      ],
      "stateMutability": "view",
      "type": "function"
    },
    {
      "inputs": [
        {
          "internalType": "uint256",
          "name": "shares",
          "type": "uint256"
        },
        {
          "internalType": "address",
          "name": "receiver",
          "type": "address"
        },
        {
          "internalType": "address",
          "name": "owner",
          "type": "address"
        }
      ],
      "name": "redeem",
      "outputs": [
        {
          "internalType": "uint256",
          "name": "assets",
          "type": "uint256"
        }
      ],
      "stateMutability": "nonpayable",
      "type": "function"
    },
    {
      "inputs": [],
      "name": "rewardsCycleEnd",
      "outputs": [
        {
          "internalType": "uint32",
          "name": "",
          "type": "uint32"
        }
      ],
      "stateMutability": "view",
      "type": "function"
    },
    {
      "inputs": [],
      "name": "rewardsCycleLength",
      "outputs": [
        {
          "internalType": "uint32",
          "name": "",
          "type": "uint32"
        }
      ],
      "stateMutability": "view",
      "type": "function"
    },
    {
      "inputs": [],
      "name": "symbol",
      "outputs": [
        {
          "internalType": "string",
          "name": "",
          "type": "string"
        }
      ],
      "stateMutability": "view",
      "type": "function"
    },
    {
      "inputs": [],
      "name": "syncRewards",
      "outputs": [],
      "stateMutability": "nonpayable",
      "type": "function"
    },
    {
      "inputs": [],
      "name": "totalAssets",
      "outputs": [
        {
          "internalType": "uint256",
          "name": "",
          "type": "uint256"
        }
      ],
      "stateMutability": "view",
      "type": "function"
    },
    {
      "inputs": [],
      "name": "totalSupply",
      "outputs": [
        {
          "internalType": "uint256",
          "name": "",
          "type": "uint256"
        }
      ],
      "stateMutability": "view",
      "type": "function"
    },
    {
      "inputs": [
        {
          "internalType": "address",
          "name": "to",
          "type": "address"
        },
        {
          "internalType": "uint256",
          "name": "amount",
          "type": "uint256"
        }
      ],
      "name": "transfer",
      "outputs": [
        {
          "internalType": "bool",
          "name": "",
          "type": "bool"
        }
      ],
      "stateMutability": "nonpayable",
      "type": "function"
    },
    {
      "inputs": [
        {
          "internalType": "address",
          "name": "from",
          "type": "address"
        },
        {
          "internalType": "address",
          "name": "to",
          "type": "address"
        },
        {
          "internalType": "uint256",
          "name": "amount",
          "type": "uint256"
        }
      ],
      "name": "transferFrom",
      "outputs": [
        {
          "internalType": "bool",
          "name": "",
          "type": "bool"
        }
      ],
      "stateMutability": "nonpayable",
      "type": "function"
    },
    {
      "inputs": [
        {
          "internalType": "uint256",
          "name": "assets",
          "type": "uint256"
        },
        {
          "internalType": "address",
          "name": "receiver",
          "type": "address"
        },
        {
          "internalType": "address",
          "name": "owner",
          "type": "address"
        }
      ],
      "name": "withdraw",
      "outputs": [
        {
          "internalType": "uint256",
          "name": "shares",
          "type": "uint256"
        }
      ],
      "stateMutability": "nonpayable",
      "type": "function"
    }
  ],
  "bytecode": {
    "object": "0x6101206040523480156200001257600080fd5b5060405162001ee338038062001ee383398101604081905262000035916200037d565b808484848181846001600160a01b031663313ce5676040518163ffffffff1660e01b8152600401602060405180830381865afa1580156200007a573d6000803e3d6000fd5b505050506040513d601f19601f82011682018060405250810190620000a0919062000424565b8251620000b590600090602086019062000214565b508151620000cb90600190602085019062000214565b5060ff81166080524660a052620000e162000160565b60c052505050506001600160a01b039190911660e0525063ffffffff8116610100819052806200011d42620001fc602090811b6200114317901c565b62000129919062000450565b62000135919062000482565b600660046101000a81548163ffffffff021916908363ffffffff16021790555050505050506200059e565b60007f8b73c3c69bb8fe3d512ecc4cf759cc79239f7b179b0ffacaa9a75d522b39400f6000604051620001949190620004fa565b6040805191829003822060208301939093528101919091527fc89efdaa54c0f20c7adf612882df0950f5a951637e0307cdcb4c672f298b8bc660608201524660808201523060a082015260c00160405160208183030381529060405280519060200120905090565b600064010000000082106200021057600080fd5b5090565b8280546200022290620004bd565b90600052602060002090601f01602090048101928262000246576000855562000291565b82601f106200026157805160ff191683800117855562000291565b8280016001018555821562000291579182015b828111156200029157825182559160200191906001019062000274565b50620002109291505b808211156200021057600081556001016200029a565b634e487b7160e01b600052604160045260246000fd5b600082601f830112620002d857600080fd5b81516001600160401b0380821115620002f557620002f5620002b0565b604051601f8301601f19908116603f01168101908282118183101715620003205762000320620002b0565b816040528381526020925086838588010111156200033d57600080fd5b600091505b8382101562000361578582018301518183018401529082019062000342565b83821115620003735760008385830101525b9695505050505050565b600080600080608085870312156200039457600080fd5b84516001600160a01b0381168114620003ac57600080fd5b60208601519094506001600160401b0380821115620003ca57600080fd5b620003d888838901620002c6565b94506040870151915080821115620003ef57600080fd5b50620003fe87828801620002c6565b925050606085015163ffffffff811681146200041957600080fd5b939692955090935050565b6000602082840312156200043757600080fd5b815160ff811681146200044957600080fd5b9392505050565b600063ffffffff808416806200047657634e487b7160e01b600052601260045260246000fd5b92169190910492915050565b600063ffffffff80831681851681830481118215151615620004b457634e487b7160e01b600052601160045260246000fd5b02949350505050565b600181811c90821680620004d257607f821691505b60208210811415620004f457634e487b7160e01b600052602260045260246000fd5b50919050565b600080835481600182811c9150808316806200051757607f831692505b60208084108214156200053857634e487b7160e01b86526022600452602486fd5b8180156200054f5760018114620005615762000590565b60ff1986168952848901965062000590565b60008a81526020902060005b86811015620005885781548b8201529085019083016200056d565b505084890196505b509498975050505050505050565b60805160a05160c05160e051610100516118d66200060d6000396000818161037a0152610a680152600081816102db015281816108c5015281816109c501528181610b4701528181610d420152610e8b0152600061083e015260006108090152600061029a01526118d66000f3fe608060405234801561001057600080fd5b50600436106101fb5760003560e01c806372c0c2111161011a578063bafedcaa116100ad578063d505accf1161007c578063d505accf146104a5578063d905777e146104b8578063dd62ed3e146104e1578063e7ff69f11461050c578063ef8b30f71461052457600080fd5b8063bafedcaa1461044d578063c63d75b614610315578063c6e6f5921461047f578063ce96cb771461049257600080fd5b8063a9059cbb116100e9578063a9059cbb14610401578063b3d7f6b914610414578063b460af9414610427578063ba0876521461043a57600080fd5b806372c0c211146103bc5780637ecebe00146103c657806394bf804d146103e657806395d89b41146103f957600080fd5b80633644e515116101925780636917516b116101615780636917516b1461033d5780636e553f65146103625780636fcf5e5f1461037557806370a082311461039c57600080fd5b80633644e515146102ce57806338d52e0f146102d6578063402d267d146103155780634cdad5061461032a57600080fd5b80630a28a477116101ce5780630a28a4771461026657806318160ddd1461027957806323b872dd14610282578063313ce5671461029557600080fd5b806301e1d1141461020057806306fdde031461021b57806307a2d13a14610230578063095ea7b314610243575b600080fd5b610208610537565b6040519081526020015b60405180910390f35b6102236105dd565b6040516102129190611456565b61020861023e3660046114ab565b61066b565b6102566102513660046114e0565b610698565b6040519015158152602001610212565b6102086102743660046114ab565b610705565b61020860025481565b61025661029036600461150a565b610725565b6102bc7f000000000000000000000000000000000000000000000000000000000000000081565b60405160ff9091168152602001610212565b610208610805565b6102fd7f000000000000000000000000000000000000000000000000000000000000000081565b6040516001600160a01b039091168152602001610212565b610208610323366004611546565b5060001990565b6102086103383660046114ab565b610860565b60065461034d9063ffffffff1681565b60405163ffffffff9091168152602001610212565b610208610370366004611561565b61086b565b61034d7f000000000000000000000000000000000000000000000000000000000000000081565b6102086103aa366004611546565b60036020526000908152604090205481565b6103c4610947565b005b6102086103d4366004611546565b60056020526000908152604090205481565b6102086103f4366004611561565b610b2d565b610223610bc9565b61025661040f3660046114e0565b610bd6565b6102086104223660046114ab565b610c3c565b61020861043536600461158d565b610c5b565b61020861044836600461158d565b610d69565b60065461046790600160401b90046001600160c01b031681565b6040516001600160c01b039091168152602001610212565b61020861048d3660046114ab565b610eb2565b6102086104a0366004611546565b610ed2565b6103c46104b33660046115c9565b610ef4565b6102086104c6366004611546565b6001600160a01b031660009081526003602052604090205490565b6102086104ef36600461163c565b600460209081526000928352604080842090915290825290205481565b60065461034d90640100000000900463ffffffff1681565b6102086105323660046114ab565b611138565b600754600654600091906001600160c01b03600160401b8204169063ffffffff6401000000008204811691164282116105865761057d6001600160c01b0384168561167c565b94505050505090565b60006105928284611694565b63ffffffff168263ffffffff16426105aa91906116b9565b6105bd906001600160c01b0387166116d0565b6105c79190611705565b90506105d3818661167c565b9550505050505090565b600080546105ea90611719565b80601f016020809104026020016040519081016040528092919081815260200182805461061690611719565b80156106635780601f1061063857610100808354040283529160200191610663565b820191906000526020600020905b81548152906001019060200180831161064657829003601f168201915b505050505081565b600254600090801561068f5761068a610682610537565b84908361115a565b610691565b825b9392505050565b3360008181526004602090815260408083206001600160a01b038716808552925280832085905551919290917f8c5be1e5ebec7d5bd14f71427d1e84f3dd0314c0f7b2291e5b200ac8c7c3b925906106f39086815260200190565b60405180910390a35060015b92915050565b600254600090801561068f5761068a8161071d610537565b859190611179565b6001600160a01b038316600090815260046020908152604080832033845290915281205460001981146107815761075c83826116b9565b6001600160a01b03861660009081526004602090815260408083203384529091529020555b6001600160a01b038516600090815260036020526040812080548592906107a99084906116b9565b90915550506001600160a01b0380851660008181526003602052604090819020805487019055519091871690600080516020611881833981519152906107f29087815260200190565b60405180910390a3506001949350505050565b60007f0000000000000000000000000000000000000000000000000000000000000000461461083b576108366111a7565b905090565b507f000000000000000000000000000000000000000000000000000000000000000090565b60006106ff8261066b565b600061087683611138565b9050806108b85760405162461bcd60e51b815260206004820152600b60248201526a5a45524f5f53484152455360a81b60448201526064015b60405180910390fd5b6108ed6001600160a01b037f000000000000000000000000000000000000000000000000000000000000000016333086611241565b6108f782826112cb565b60408051848152602081018390526001600160a01b0384169133917fdcbc1c05240f31ff3ad067ef1ee35ce4997762752e3a095284754544f4c709d7910160405180910390a36106ff8382611325565b600654600160401b90046001600160c01b0316600061096542611143565b60065490915063ffffffff6401000000009091048116908216101561099d5760405163127d33e760e21b815260040160405180910390fd5b6007546040516370a0823160e01b81523060048201526000906001600160c01b0385169083907f00000000000000000000000000000000000000000000000000000000000000006001600160a01b0316906370a0823190602401602060405180830381865afa158015610a14573d6000803e3d6000fd5b505050506040513d601f19601f82011682018060405250810190610a389190611754565b610a4291906116b9565b610a4c91906116b9565b9050610a616001600160c01b0385168361167c565b60075560007f000000000000000000000000000000000000000000000000000000000000000080610a92818761176d565b610a9c9190611795565b610aa691906117b8565b9050610ab182611349565b63ffffffff82811664010000000081026001600160c01b0393909316600160401b0267ffffffffffffffff191691871691909117919091176006556040517f2fa39aac60d1c94cda4ab0e86ae9c0ffab5b926e5b827a4ccba1d9b5b2ef596e90610b1e9085815260200190565b60405180910390a25050505050565b6000610b3883610c3c565b9050610b6f6001600160a01b037f000000000000000000000000000000000000000000000000000000000000000016333084611241565b610b7982846112cb565b60408051828152602081018590526001600160a01b0384169133917fdcbc1c05240f31ff3ad067ef1ee35ce4997762752e3a095284754544f4c709d7910160405180910390a36106ff8184611325565b600180546105ea90611719565b33600090815260036020526040812080548391908390610bf79084906116b9565b90915550506001600160a01b03831660008181526003602052604090819020805485019055513390600080516020611881833981519152906106f39086815260200190565b600254600090801561068f5761068a610c53610537565b849083611179565b6000610c6684610705565b9050336001600160a01b03831614610cd6576001600160a01b03821660009081526004602090815260408083203384529091529020546000198114610cd457610caf82826116b9565b6001600160a01b03841660009081526004602090815260408083203384529091529020555b505b610ce0848261135b565b610cea8282611376565b60408051858152602081018390526001600160a01b03808516929086169133917ffbde797d201c681b91056529119e0b02407c7bb96a4a2c75c01fc9667232c8db910160405180910390a46106916001600160a01b037f00000000000000000000000000000000000000000000000000000000000000001684866113d8565b6000336001600160a01b03831614610dd9576001600160a01b03821660009081526004602090815260408083203384529091529020546000198114610dd757610db285826116b9565b6001600160a01b03841660009081526004602090815260408083203384529091529020555b505b610de284610860565b905080610e1f5760405162461bcd60e51b815260206004820152600b60248201526a5a45524f5f41535345545360a81b60448201526064016108af565b610e29818561135b565b610e338285611376565b60408051828152602081018690526001600160a01b03808516929086169133917ffbde797d201c681b91056529119e0b02407c7bb96a4a2c75c01fc9667232c8db910160405180910390a46106916001600160a01b037f00000000000000000000000000000000000000000000000000000000000000001684836113d8565b600254600090801561068f5761068a81610eca610537565b85919061115a565b6001600160a01b0381166000908152600360205260408120546106ff9061066b565b42841015610f445760405162461bcd60e51b815260206004820152601760248201527f5045524d49545f444541444c494e455f4558504952454400000000000000000060448201526064016108af565b60006001610f50610805565b6001600160a01b038a811660008181526005602090815260409182902080546001810190915582517f6e71edae12b1b97f4d1f60370fef10105fa2faae0126114a169c64845d6126c98184015280840194909452938d166060840152608083018c905260a083019390935260c08083018b90528151808403909101815260e08301909152805192019190912061190160f01b6101008301526101028201929092526101228101919091526101420160408051601f198184030181528282528051602091820120600084529083018083525260ff871690820152606081018590526080810184905260a0016020604051602081039080840390855afa15801561105c573d6000803e3d6000fd5b5050604051601f1901519150506001600160a01b038116158015906110925750876001600160a01b0316816001600160a01b0316145b6110cf5760405162461bcd60e51b815260206004820152600e60248201526d24a72b20a624a22fa9a4a3a722a960911b60448201526064016108af565b6001600160a01b0390811660009081526004602090815260408083208a8516808552908352928190208990555188815291928a16917f8c5be1e5ebec7d5bd14f71427d1e84f3dd0314c0f7b2291e5b200ac8c7c3b925910160405180910390a350505050505050565b60006106ff82610eb2565b6000640100000000821061115657600080fd5b5090565b82820281151584158583048514171661117257600080fd5b0492915050565b82820281151584158583048514171661119157600080fd5b6001826001830304018115150290509392505050565b60007f8b73c3c69bb8fe3d512ecc4cf759cc79239f7b179b0ffacaa9a75d522b39400f60006040516111d991906117e4565b6040805191829003822060208301939093528101919091527fc89efdaa54c0f20c7adf612882df0950f5a951637e0307cdcb4c672f298b8bc660608201524660808201523060a082015260c00160405160208183030381529060405280519060200120905090565b60006040516323b872dd60e01b81528460048201528360248201528260448201526020600060648360008a5af13d15601f3d11600160005114161716915050806112c45760405162461bcd60e51b81526020600482015260146024820152731514905394d1915497d19493d357d1905253115160621b60448201526064016108af565b5050505050565b80600260008282546112dd919061167c565b90915550506001600160a01b03821660008181526003602090815260408083208054860190555184815260008051602061188183398151915291015b60405180910390a35050565b8160076000828254611337919061167c565b909155506113459050828282565b5050565b6000600160c01b821061115657600080fd5b816007600082825461136d91906116b9565b90915550505050565b6001600160a01b0382166000908152600360205260408120805483929061139e9084906116b9565b90915550506002805482900390556040518181526000906001600160a01b0384169060008051602061188183398151915290602001611319565b600060405163a9059cbb60e01b8152836004820152826024820152602060006044836000895af13d15601f3d11600160005114161716915050806114505760405162461bcd60e51b815260206004820152600f60248201526e1514905394d1915497d19052531151608a1b60448201526064016108af565b50505050565b600060208083528351808285015260005b8181101561148357858101830151858201604001528201611467565b81811115611495576000604083870101525b50601f01601f1916929092016040019392505050565b6000602082840312156114bd57600080fd5b5035919050565b80356001600160a01b03811681146114db57600080fd5b919050565b600080604083850312156114f357600080fd5b6114fc836114c4565b946020939093013593505050565b60008060006060848603121561151f57600080fd5b611528846114c4565b9250611536602085016114c4565b9150604084013590509250925092565b60006020828403121561155857600080fd5b610691826114c4565b6000806040838503121561157457600080fd5b82359150611584602084016114c4565b90509250929050565b6000806000606084860312156115a257600080fd5b833592506115b2602085016114c4565b91506115c0604085016114c4565b90509250925092565b600080600080600080600060e0888a0312156115e457600080fd5b6115ed886114c4565b96506115fb602089016114c4565b95506040880135945060608801359350608088013560ff8116811461161f57600080fd5b9699959850939692959460a0840135945060c09093013592915050565b6000806040838503121561164f57600080fd5b611658836114c4565b9150611584602084016114c4565b634e487b7160e01b600052601160045260246000fd5b6000821982111561168f5761168f611666565b500190565b600063ffffffff838116908316818110156116b1576116b1611666565b039392505050565b6000828210156116cb576116cb611666565b500390565b60008160001904831182151516156116ea576116ea611666565b500290565b634e487b7160e01b600052601260045260246000fd5b600082611714576117146116ef565b500490565b600181811c9082168061172d57607f821691505b6020821081141561174e57634e487b7160e01b600052602260045260246000fd5b50919050565b60006020828403121561176657600080fd5b5051919050565b600063ffffffff80831681851680830382111561178c5761178c611666565b01949350505050565b600063ffffffff808416806117ac576117ac6116ef565b92169190910492915050565b600063ffffffff808316818516818304811182151516156117db576117db611666565b02949350505050565b600080835481600182811c91508083168061180057607f831692505b602080841082141561182057634e487b7160e01b86526022600452602486fd5b818015611834576001811461184557611872565b60ff19861689528489019650611872565b60008a81526020902060005b8681101561186a5781548b820152908501908301611851565b505084890196505b50949897505050505050505056feddf252ad1be2c89b69c2b068fc378daa952ba7f163c4a11628f55a4df523b3efa2646970667358221220ab7e727c573d7d2951f2f2dd25e8af74c8710561a21b8f79882435326a161ffa64736f6c634300080c0033",
    "linkReferences": {}
  }
}